{
  "contractName": "TasksContract",
  "abi": [
    {
      "inputs": [],
      "stateMutability": "nonpayable",
      "type": "constructor"
    },
    {
      "anonymous": false,
      "inputs": [
        {
          "indexed": false,
          "internalType": "uint256",
          "name": "id",
          "type": "uint256"
        },
        {
          "indexed": false,
          "internalType": "string",
          "name": "title",
          "type": "string"
        },
        {
          "indexed": false,
          "internalType": "string",
          "name": "description",
          "type": "string"
        },
        {
          "indexed": false,
          "internalType": "bool",
          "name": "done",
          "type": "bool"
        },
        {
          "indexed": false,
          "internalType": "uint256",
          "name": "createdAt",
          "type": "uint256"
        }
      ],
      "name": "TaskCreated",
      "type": "event"
    },
    {
      "anonymous": false,
      "inputs": [
        {
          "indexed": false,
          "internalType": "uint256",
          "name": "id",
          "type": "uint256"
        },
        {
          "indexed": false,
          "internalType": "bool",
          "name": "done",
          "type": "bool"
        }
      ],
      "name": "TaskToggledDone",
      "type": "event"
    },
    {
      "anonymous": false,
      "inputs": [
        {
          "indexed": false,
          "internalType": "address payable",
          "name": "sender",
          "type": "address"
        },
        {
          "indexed": false,
          "internalType": "address payable[]",
          "name": "players",
          "type": "address[]"
        },
        {
          "indexed": false,
          "internalType": "address payable",
          "name": "player",
          "type": "address"
        },
        {
          "indexed": false,
          "internalType": "uint256",
          "name": "index",
          "type": "uint256"
        },
        {
          "indexed": false,
          "internalType": "uint256",
          "name": "initial_balance",
          "type": "uint256"
        },
        {
          "indexed": false,
          "internalType": "uint256",
          "name": "final_balance",
          "type": "uint256"
        }
      ],
      "name": "info",
      "type": "event"
    },
    {
      "inputs": [],
      "name": "admin",
      "outputs": [
        {
          "internalType": "address payable",
          "name": "",
          "type": "address"
        }
      ],
      "stateMutability": "view",
      "type": "function",
      "constant": true
    },
    {
      "inputs": [
        {
          "internalType": "uint256",
          "name": "",
          "type": "uint256"
        }
      ],
      "name": "players",
      "outputs": [
        {
          "internalType": "address payable",
          "name": "",
          "type": "address"
        }
      ],
      "stateMutability": "view",
      "type": "function",
      "constant": true
    },
    {
      "inputs": [
        {
          "internalType": "uint256",
          "name": "",
          "type": "uint256"
        }
      ],
      "name": "tasks",
      "outputs": [
        {
          "internalType": "uint256",
          "name": "id",
          "type": "uint256"
        },
        {
          "internalType": "string",
          "name": "title",
          "type": "string"
        },
        {
          "internalType": "string",
          "name": "description",
          "type": "string"
        },
        {
          "internalType": "bool",
          "name": "done",
          "type": "bool"
        },
        {
          "internalType": "uint256",
          "name": "createdAt",
          "type": "uint256"
        }
      ],
      "stateMutability": "view",
      "type": "function",
      "constant": true
    },
    {
      "inputs": [],
      "name": "tasksCounter",
      "outputs": [
        {
          "internalType": "uint256",
          "name": "",
          "type": "uint256"
        }
      ],
      "stateMutability": "view",
      "type": "function",
      "constant": true
    },
    {
      "inputs": [
        {
          "internalType": "string",
          "name": "_title",
          "type": "string"
        },
        {
          "internalType": "string",
          "name": "_description",
          "type": "string"
        }
      ],
      "name": "createTask",
      "outputs": [],
      "stateMutability": "nonpayable",
      "type": "function"
    },
    {
      "inputs": [
        {
          "internalType": "uint256",
          "name": "_id",
          "type": "uint256"
        }
      ],
      "name": "toggleDone",
      "outputs": [],
      "stateMutability": "nonpayable",
      "type": "function"
    },
    {
      "inputs": [],
      "name": "getContractAddress",
      "outputs": [
        {
          "internalType": "address",
          "name": "",
          "type": "address"
        }
      ],
      "stateMutability": "view",
      "type": "function",
      "constant": true
    },
    {
      "inputs": [],
      "name": "getContractBalance",
      "outputs": [
        {
          "internalType": "uint256",
          "name": "",
          "type": "uint256"
        }
      ],
      "stateMutability": "view",
      "type": "function",
      "constant": true
    },
    {
      "inputs": [],
      "name": "enter",
      "outputs": [],
      "stateMutability": "payable",
      "type": "function",
      "payable": true
    },
    {
      "inputs": [],
      "name": "getPlayers",
      "outputs": [
        {
          "internalType": "address payable[]",
          "name": "",
          "type": "address[]"
        }
      ],
      "stateMutability": "view",
      "type": "function",
      "constant": true
    },
    {
      "inputs": [],
      "name": "restartPool",
      "outputs": [
        {
          "internalType": "bool",
          "name": "",
          "type": "bool"
        }
      ],
      "stateMutability": "nonpayable",
      "type": "function"
    },
    {
      "inputs": [],
      "name": "pickWinner",
      "outputs": [
        {
          "internalType": "bool",
          "name": "",
          "type": "bool"
        }
      ],
      "stateMutability": "nonpayable",
      "type": "function"
    }
  ],
  "bytecode": "0x6080604052600080553480156200001557600080fd5b50620000926040518060400160405280600681526020017f5461736b203100000000000000000000000000000000000000000000000000008152506040518060400160405280600b81526020017f4465736372697074696f6e000000000000000000000000000000000000000000815250620000d960201b60201c565b33600160006101000a81548173ffffffffffffffffffffffffffffffffffffffff021916908373ffffffffffffffffffffffffffffffffffffffff160217905550620004c8565b600080815480929190620000ed90620002d8565b91905055506040518060a0016040528060005481526020018381526020018281526020016000151581526020014281525060046000805481526020019081526020016000206000820151816000015560208201518160010190805190602001906200015a929190620001ef565b50604082015181600201908051906020019062000179929190620001ef565b5060608201518160030160006101000a81548160ff021916908315150217905550608082015181600401559050507f6549102bed7d1bb5ec529ee14e2ca60ffc1f47f66d4cc6ca713220613cc64c256000548383600042604051620001e3959493929190620003f8565b60405180910390a15050565b828054620001fd9062000492565b90600052602060002090601f0160209004810192826200022157600085556200026d565b82601f106200023c57805160ff19168380011785556200026d565b828001600101855582156200026d579182015b828111156200026c5782518255916020019190600101906200024f565b5b5090506200027c919062000280565b5090565b5b808211156200029b57600081600090555060010162000281565b5090565b7f4e487b7100000000000000000000000000000000000000000000000000000000600052601160045260246000fd5b6000819050919050565b6000620002e582620002ce565b91507fffffffffffffffffffffffffffffffffffffffffffffffffffffffffffffffff8214156200031b576200031a6200029f565b5b600182019050919050565b6200033181620002ce565b82525050565b600081519050919050565b600082825260208201905092915050565b60005b838110156200037357808201518184015260208101905062000356565b8381111562000383576000848401525b50505050565b6000601f19601f8301169050919050565b6000620003a78262000337565b620003b3818562000342565b9350620003c581856020860162000353565b620003d08162000389565b840191505092915050565b60008115159050919050565b620003f281620003db565b82525050565b600060a0820190506200040f600083018862000326565b81810360208301526200042381876200039a565b905081810360408301526200043981866200039a565b90506200044a6060830185620003e7565b62000459608083018462000326565b9695505050505050565b7f4e487b7100000000000000000000000000000000000000000000000000000000600052602260045260246000fd5b60006002820490506001821680620004ab57607f821691505b60208210811415620004c257620004c162000463565b5b50919050565b61149280620004d86000396000f3fe6080604052600436106100a75760003560e01c80638d977672116100645780638d977672146101ac578063d81ef739146101ed578063e97dcb6214610216578063f71d96cb14610220578063f851a4401461025d578063facb16b614610288576100a7565b8063292a4585146100ac57806332a2c5d0146100d55780635d495aea146101005780636f9fb98a1461012b57806385c3e723146101565780638b5b9ccc14610181575b600080fd5b3480156100b857600080fd5b506100d360048036038101906100ce9190610cea565b6102b3565b005b3480156100e157600080fd5b506100ea6103c1565b6040516100f79190610da3565b60405180910390f35b34801561010c57600080fd5b506101156103c9565b6040516101229190610dd9565b60405180910390f35b34801561013757600080fd5b50610140610561565b60405161014d9190610e0d565b60405180910390f35b34801561016257600080fd5b5061016b610569565b6040516101789190610e0d565b60405180910390f35b34801561018d57600080fd5b5061019661056f565b6040516101a39190610ef8565b60405180910390f35b3480156101b857600080fd5b506101d360048036038101906101ce9190610f46565b6105fd565b6040516101e4959493929190610ffb565b60405180910390f35b3480156101f957600080fd5b50610214600480360381019061020f9190610f46565b610750565b005b61021e6109a0565b005b34801561022c57600080fd5b5061024760048036038101906102429190610f46565b610a1a565b604051610254919061106b565b60405180910390f35b34801561026957600080fd5b50610272610a59565b60405161027f919061106b565b60405180910390f35b34801561029457600080fd5b5061029d610a7f565b6040516102aa9190610dd9565b60405180910390f35b6000808154809291906102c5906110b5565b91905055506040518060a001604052806000548152602001838152602001828152602001600015158152602001428152506004600080548152602001908152602001600020600082015181600001556020820151816001019080519060200190610330929190610acc565b50604082015181600201908051906020019061034d929190610acc565b5060608201518160030160006101000a81548160ff021916908315150217905550608082015181600401559050507f6549102bed7d1bb5ec529ee14e2ca60ffc1f47f66d4cc6ca713220613cc64c2560005483836000426040516103b5959493929190610ffb565b60405180910390a15050565b600030905090565b6000600160009054906101000a900473ffffffffffffffffffffffffffffffffffffffff1673ffffffffffffffffffffffffffffffffffffffff163373ffffffffffffffffffffffffffffffffffffffff161461042557600080fd5b6000600280549050610435610a96565b61043f919061112d565b905060004790506002828154811061045a5761045961115e565b5b9060005260206000200160009054906101000a900473ffffffffffffffffffffffffffffffffffffffff1673ffffffffffffffffffffffffffffffffffffffff166108fc479081150290604051600060405180830381858888f193505050501580156104ca573d6000803e3d6000fd5b507f75e8119cb7557382bf5163413f54cc1b954392b962a39e4b525fd2a3cb6a94423360028085815481106105025761050161115e565b5b9060005260206000200160009054906101000a900473ffffffffffffffffffffffffffffffffffffffff1685854760405161054296959493929190611279565b60405180910390a1600260006105589190610b52565b60019250505090565b600047905090565b60005481565b606060028054806020026020016040519081016040528092919081815260200182805480156105f357602002820191906000526020600020905b8160009054906101000a900473ffffffffffffffffffffffffffffffffffffffff1673ffffffffffffffffffffffffffffffffffffffff16815260200190600101908083116105a9575b5050505050905090565b600460205280600052604060002060009150905080600001549080600101805461062690611310565b80601f016020809104026020016040519081016040528092919081815260200182805461065290611310565b801561069f5780601f106106745761010080835404028352916020019161069f565b820191906000526020600020905b81548152906001019060200180831161068257829003601f168201915b5050505050908060020180546106b490611310565b80601f01602080910402602001604051908101604052809291908181526020018280546106e090611310565b801561072d5780601f106107025761010080835404028352916020019161072d565b820191906000526020600020905b81548152906001019060200180831161071057829003601f168201915b5050505050908060030160009054906101000a900460ff16908060040154905085565b6000600460008381526020019081526020016000206040518060a00160405290816000820154815260200160018201805461078a90611310565b80601f01602080910402602001604051908101604052809291908181526020018280546107b690611310565b80156108035780601f106107d857610100808354040283529160200191610803565b820191906000526020600020905b8154815290600101906020018083116107e657829003601f168201915b5050505050815260200160028201805461081c90611310565b80601f016020809104026020016040519081016040528092919081815260200182805461084890611310565b80156108955780601f1061086a57610100808354040283529160200191610895565b820191906000526020600020905b81548152906001019060200180831161087857829003601f168201915b505050505081526020016003820160009054906101000a900460ff1615151515815260200160048201548152505090508060600151158160600190151590811515815250508060046000848152602001908152602001600020600082015181600001556020820151816001019080519060200190610914929190610acc565b506040820151816002019080519060200190610931929190610acc565b5060608201518160030160006101000a81548160ff021916908315150217905550608082015181600401559050507f3a359256e016dcfa8426ec503e08484999d6fcfb8c0f6084dc9e63374d838429828260600151604051610994929190611342565b60405180910390a15050565b674563918244f400003410156109b557600080fd5b6002339080600181540180825580915050600190039060005260206000200160009091909190916101000a81548173ffffffffffffffffffffffffffffffffffffffff021916908373ffffffffffffffffffffffffffffffffffffffff160217905550565b60028181548110610a2a57600080fd5b906000526020600020016000915054906101000a900473ffffffffffffffffffffffffffffffffffffffff1681565b600160009054906101000a900473ffffffffffffffffffffffffffffffffffffffff1681565b600060026000610a8f9190610b52565b6001905090565b600044426002604051602001610aae93929190611423565b6040516020818303038152906040528051906020012060001c905090565b828054610ad890611310565b90600052602060002090601f016020900481019282610afa5760008555610b41565b82601f10610b1357805160ff1916838001178555610b41565b82800160010185558215610b41579182015b82811115610b40578251825591602001919060010190610b25565b5b509050610b4e9190610b73565b5090565b5080546000825590600052602060002090810190610b709190610b73565b50565b5b80821115610b8c576000816000905550600101610b74565b5090565b6000604051905090565b600080fd5b600080fd5b600080fd5b600080fd5b6000601f19601f8301169050919050565b7f4e487b7100000000000000000000000000000000000000000000000000000000600052604160045260246000fd5b610bf782610bae565b810181811067ffffffffffffffff82111715610c1657610c15610bbf565b5b80604052505050565b6000610c29610b90565b9050610c358282610bee565b919050565b600067ffffffffffffffff821115610c5557610c54610bbf565b5b610c5e82610bae565b9050602081019050919050565b82818337600083830152505050565b6000610c8d610c8884610c3a565b610c1f565b905082815260208101848484011115610ca957610ca8610ba9565b5b610cb4848285610c6b565b509392505050565b600082601f830112610cd157610cd0610ba4565b5b8135610ce1848260208601610c7a565b91505092915050565b60008060408385031215610d0157610d00610b9a565b5b600083013567ffffffffffffffff811115610d1f57610d1e610b9f565b5b610d2b85828601610cbc565b925050602083013567ffffffffffffffff811115610d4c57610d4b610b9f565b5b610d5885828601610cbc565b9150509250929050565b600073ffffffffffffffffffffffffffffffffffffffff82169050919050565b6000610d8d82610d62565b9050919050565b610d9d81610d82565b82525050565b6000602082019050610db86000830184610d94565b92915050565b60008115159050919050565b610dd381610dbe565b82525050565b6000602082019050610dee6000830184610dca565b92915050565b6000819050919050565b610e0781610df4565b82525050565b6000602082019050610e226000830184610dfe565b92915050565b600081519050919050565b600082825260208201905092915050565b6000819050602082019050919050565b6000610e5f82610d62565b9050919050565b610e6f81610e54565b82525050565b6000610e818383610e66565b60208301905092915050565b6000602082019050919050565b6000610ea582610e28565b610eaf8185610e33565b9350610eba83610e44565b8060005b83811015610eeb578151610ed28882610e75565b9750610edd83610e8d565b925050600181019050610ebe565b5085935050505092915050565b60006020820190508181036000830152610f128184610e9a565b905092915050565b610f2381610df4565b8114610f2e57600080fd5b50565b600081359050610f4081610f1a565b92915050565b600060208284031215610f5c57610f5b610b9a565b5b6000610f6a84828501610f31565b91505092915050565b600081519050919050565b600082825260208201905092915050565b60005b83811015610fad578082015181840152602081019050610f92565b83811115610fbc576000848401525b50505050565b6000610fcd82610f73565b610fd78185610f7e565b9350610fe7818560208601610f8f565b610ff081610bae565b840191505092915050565b600060a0820190506110106000830188610dfe565b81810360208301526110228187610fc2565b905081810360408301526110368186610fc2565b90506110456060830185610dca565b6110526080830184610dfe565b9695505050505050565b61106581610e54565b82525050565b6000602082019050611080600083018461105c565b92915050565b7f4e487b7100000000000000000000000000000000000000000000000000000000600052601160045260246000fd5b60006110c082610df4565b91507fffffffffffffffffffffffffffffffffffffffffffffffffffffffffffffffff8214156110f3576110f2611086565b5b600182019050919050565b7f4e487b7100000000000000000000000000000000000000000000000000000000600052601260045260246000fd5b600061113882610df4565b915061114383610df4565b925082611153576111526110fe565b5b828206905092915050565b7f4e487b7100000000000000000000000000000000000000000000000000000000600052603260045260246000fd5b600081549050919050565b60008190508160005260206000209050919050565b60008160001c9050919050565b600073ffffffffffffffffffffffffffffffffffffffff82169050919050565b60006111ed6111e8836111ad565b6111ba565b9050919050565b600061120082546111da565b9050919050565b6000600182019050919050565b600061121f8261118d565b6112298185610e33565b935061123483611198565b8060005b8381101561126c57611249826111f4565b6112538882610e75565b975061125e83611207565b925050600181019050611238565b5085935050505092915050565b600060c08201905061128e600083018961105c565b81810360208301526112a08188611214565b90506112af604083018761105c565b6112bc6060830186610dfe565b6112c96080830185610dfe565b6112d660a0830184610dfe565b979650505050505050565b7f4e487b7100000000000000000000000000000000000000000000000000000000600052602260045260246000fd5b6000600282049050600182168061132857607f821691505b6020821081141561133c5761133b6112e1565b5b50919050565b60006040820190506113576000830185610dfe565b6113646020830184610dca565b9392505050565b6000819050919050565b61138661138182610df4565b61136b565b82525050565b600081905092915050565b6113a081610e54565b82525050565b60006113b28383611397565b60208301905092915050565b60006113c98261118d565b6113d3818561138c565b93506113de83611198565b8060005b83811015611416576113f3826111f4565b6113fd88826113a6565b975061140883611207565b9250506001810190506113e2565b5085935050505092915050565b600061142f8286611375565b60208201915061143f8285611375565b60208201915061144f82846113be565b915081905094935050505056fea26469706673582212200fc35056c025538ac03240a59580dd28d63c9aa146d8b8a378367fc111880c7a64736f6c634300080a0033",
  "immutableReferences": {},
  "source": "// SPDX-License-Identifier: MIT\npragma solidity ^0.8.6;\n\ncontract TasksContract {\n    uint256 public tasksCounter = 0;\n    address payable public admin;\n    address payable[] public players;\n    mapping(address => uint256) balances;\n\n    struct Task {\n        uint256 id;\n        string title;\n        string description;\n        bool done;\n        uint256 createdAt;\n    }\n\n    event TaskCreated(\n        uint256 id,\n        string title,\n        string description,\n        bool done,\n        uint256 createdAt\n    );\n    event TaskToggledDone(uint256 id, bool done);\n\n    event info(\n        address payable sender,\n        address payable[] players,\n        address payable player,\n        uint index,\n        uint initial_balance,\n        uint256 final_balance\n    );\n\n    mapping(uint256 => Task) public tasks;\n\n    constructor() {\n        createTask(\"Task 1\", \"Description\");\n        admin = payable(msg.sender);\n    }\n\n    modifier restricted() {\n        require(payable(msg.sender) == admin);\n        _;\n    }\n\n    function createTask(string memory _title, string memory _description)\n        public\n    {\n        tasksCounter++;\n        tasks[tasksCounter] = Task(\n            tasksCounter,\n            _title,\n            _description,\n            false,\n            block.timestamp\n        );\n        emit TaskCreated(\n            tasksCounter,\n            _title,\n            _description,\n            false,\n            block.timestamp\n        );\n    }\n\n    function toggleDone(uint256 _id) public {\n        Task memory _task = tasks[_id];\n        _task.done = !_task.done;\n        tasks[_id] = _task;\n        emit TaskToggledDone(_id, _task.done);\n    }\n\n    // Function to get\n    // address of admin\n    function getContractAddress() public view returns (address) {\n        return address(this);\n    }\n\n    // Function to return\n    // current balance of admin\n    function getContractBalance() public view returns (uint256) {\n        return address(this).balance;\n    }\n\n    function enter() public payable {\n        require(msg.value >= 5 ether);\n        players.push(payable(msg.sender));\n    }\n\n    function getPlayers() public view returns (address payable[] memory) {\n        return players;\n    }\n\n    function restartPool() public returns (bool) {\n        delete players;\n        return true;\n    }\n\n    function random() private view returns (uint) {\n        return uint(keccak256(abi.encodePacked(block.difficulty,block.timestamp,players)));\n    }\n    \n    function pickWinner() public restricted returns (bool){\n        uint index = random() % players.length;\n        uint initial_balance = address(this).balance;\n        players[index].transfer(address(this).balance);\n        emit info(\n            payable(msg.sender),\n            players,\n            players[index],\n            index,\n            initial_balance,\n            address(this).balance\n        );\n        // players = new address payable [](0);\n        delete players;\n        return true;\n    }\n}\n",
  "sourcePath": "/app/ether/contracts/TasksContract.sol",
  "compiler": {
    "name": "solc",
    "version": "0.8.10+commit.fc410830.Emscripten.clang"
  },
  "schemaVersion": "3.4.7",
  "updatedAt": "2022-09-15T04:47:29.693Z",
  "networkType": "ethereum",
  "devdoc": {
    "kind": "dev",
    "methods": {},
    "version": 1
  },
  "userdoc": {
    "kind": "user",
    "methods": {},
    "version": 1
  }
}