{
  "contractName": "TasksContract",
  "abi": [
    {
      "inputs": [],
      "stateMutability": "nonpayable",
      "type": "constructor"
    },
    {
      "anonymous": false,
      "inputs": [
        {
          "indexed": false,
          "internalType": "uint256",
          "name": "id",
          "type": "uint256"
        },
        {
          "indexed": false,
          "internalType": "string",
          "name": "title",
          "type": "string"
        },
        {
          "indexed": false,
          "internalType": "string",
          "name": "description",
          "type": "string"
        },
        {
          "indexed": false,
          "internalType": "bool",
          "name": "done",
          "type": "bool"
        },
        {
          "indexed": false,
          "internalType": "uint256",
          "name": "createdAt",
          "type": "uint256"
        }
      ],
      "name": "TaskCreated",
      "type": "event"
    },
    {
      "anonymous": false,
      "inputs": [
        {
          "indexed": false,
          "internalType": "uint256",
          "name": "id",
          "type": "uint256"
        },
        {
          "indexed": false,
          "internalType": "bool",
          "name": "done",
          "type": "bool"
        }
      ],
      "name": "TaskToggledDone",
      "type": "event"
    },
    {
      "inputs": [],
      "name": "admin",
      "outputs": [
        {
          "internalType": "address payable",
          "name": "",
          "type": "address"
        }
      ],
      "stateMutability": "view",
      "type": "function"
    },
    {
      "inputs": [
        {
          "internalType": "uint256",
          "name": "",
          "type": "uint256"
        }
      ],
      "name": "players",
      "outputs": [
        {
          "internalType": "address payable",
          "name": "",
          "type": "address"
        }
      ],
      "stateMutability": "view",
      "type": "function"
    },
    {
      "inputs": [
        {
          "internalType": "uint256",
          "name": "",
          "type": "uint256"
        }
      ],
      "name": "tasks",
      "outputs": [
        {
          "internalType": "uint256",
          "name": "id",
          "type": "uint256"
        },
        {
          "internalType": "string",
          "name": "title",
          "type": "string"
        },
        {
          "internalType": "string",
          "name": "description",
          "type": "string"
        },
        {
          "internalType": "bool",
          "name": "done",
          "type": "bool"
        },
        {
          "internalType": "uint256",
          "name": "createdAt",
          "type": "uint256"
        }
      ],
      "stateMutability": "view",
      "type": "function"
    },
    {
      "inputs": [],
      "name": "tasksCounter",
      "outputs": [
        {
          "internalType": "uint256",
          "name": "",
          "type": "uint256"
        }
      ],
      "stateMutability": "view",
      "type": "function"
    },
    {
      "inputs": [
        {
          "internalType": "string",
          "name": "_title",
          "type": "string"
        },
        {
          "internalType": "string",
          "name": "_description",
          "type": "string"
        }
      ],
      "name": "createTask",
      "outputs": [],
      "stateMutability": "nonpayable",
      "type": "function"
    },
    {
      "inputs": [
        {
          "internalType": "uint256",
          "name": "_id",
          "type": "uint256"
        }
      ],
      "name": "toggleDone",
      "outputs": [],
      "stateMutability": "nonpayable",
      "type": "function"
    },
    {
      "inputs": [],
      "name": "getContractAddress",
      "outputs": [
        {
          "internalType": "address",
          "name": "",
          "type": "address"
        }
      ],
      "stateMutability": "view",
      "type": "function"
    },
    {
      "inputs": [],
      "name": "getContractBalance",
      "outputs": [
        {
          "internalType": "uint256",
          "name": "",
          "type": "uint256"
        }
      ],
      "stateMutability": "view",
      "type": "function"
    },
    {
      "inputs": [],
      "name": "enter",
      "outputs": [],
      "stateMutability": "payable",
      "type": "function"
    },
    {
      "inputs": [],
      "name": "getPlayers",
      "outputs": [
        {
          "internalType": "address payable[]",
          "name": "",
          "type": "address[]"
        }
      ],
      "stateMutability": "view",
      "type": "function"
    },
    {
      "inputs": [
        {
          "internalType": "address",
          "name": "addr",
          "type": "address"
        }
      ],
      "name": "getBalance",
      "outputs": [
        {
          "internalType": "uint256",
          "name": "",
          "type": "uint256"
        }
      ],
      "stateMutability": "view",
      "type": "function"
    }
  ],
  "bytecode": "0x6080604052600080553480156200001557600080fd5b50620000926040518060400160405280600681526020017f5461736b203100000000000000000000000000000000000000000000000000008152506040518060400160405280600b81526020017f4465736372697074696f6e000000000000000000000000000000000000000000815250620000d960201b60201c565b33600160006101000a81548173ffffffffffffffffffffffffffffffffffffffff021916908373ffffffffffffffffffffffffffffffffffffffff160217905550620004c8565b600080815480929190620000ed90620002d8565b91905055506040518060a0016040528060005481526020018381526020018281526020016000151581526020014281525060046000805481526020019081526020016000206000820151816000015560208201518160010190805190602001906200015a929190620001ef565b50604082015181600201908051906020019062000179929190620001ef565b5060608201518160030160006101000a81548160ff021916908315150217905550608082015181600401559050507f6549102bed7d1bb5ec529ee14e2ca60ffc1f47f66d4cc6ca713220613cc64c256000548383600042604051620001e3959493929190620003f8565b60405180910390a15050565b828054620001fd9062000492565b90600052602060002090601f0160209004810192826200022157600085556200026d565b82601f106200023c57805160ff19168380011785556200026d565b828001600101855582156200026d579182015b828111156200026c5782518255916020019190600101906200024f565b5b5090506200027c919062000280565b5090565b5b808211156200029b57600081600090555060010162000281565b5090565b7f4e487b7100000000000000000000000000000000000000000000000000000000600052601160045260246000fd5b6000819050919050565b6000620002e582620002ce565b91507fffffffffffffffffffffffffffffffffffffffffffffffffffffffffffffffff8214156200031b576200031a6200029f565b5b600182019050919050565b6200033181620002ce565b82525050565b600081519050919050565b600082825260208201905092915050565b60005b838110156200037357808201518184015260208101905062000356565b8381111562000383576000848401525b50505050565b6000601f19601f8301169050919050565b6000620003a78262000337565b620003b3818562000342565b9350620003c581856020860162000353565b620003d08162000389565b840191505092915050565b60008115159050919050565b620003f281620003db565b82525050565b600060a0820190506200040f600083018862000326565b81810360208301526200042381876200039a565b905081810360408301526200043981866200039a565b90506200044a6060830185620003e7565b62000459608083018462000326565b9695505050505050565b7f4e487b7100000000000000000000000000000000000000000000000000000000600052602260045260246000fd5b60006002820490506001821680620004ab57607f821691505b60208210811415620004c257620004c162000463565b5b50919050565b610ff380620004d86000396000f3fe60806040526004361061009c5760003560e01c80638d977672116100645780638d97767214610176578063d81ef739146101b7578063e97dcb62146101e0578063f71d96cb146101ea578063f851a44014610227578063f8b2cb4f146102525761009c565b8063292a4585146100a157806332a2c5d0146100ca5780636f9fb98a146100f557806385c3e723146101205780638b5b9ccc1461014b575b600080fd5b3480156100ad57600080fd5b506100c860048036038101906100c39190610ae1565b61028f565b005b3480156100d657600080fd5b506100df61039d565b6040516100ec9190610b9a565b60405180910390f35b34801561010157600080fd5b5061010a6103a5565b6040516101179190610bce565b60405180910390f35b34801561012c57600080fd5b506101356103ad565b6040516101429190610bce565b60405180910390f35b34801561015757600080fd5b506101606103b3565b60405161016d9190610cb9565b60405180910390f35b34801561018257600080fd5b5061019d60048036038101906101989190610d07565b610441565b6040516101ae959493929190610dd7565b60405180910390f35b3480156101c357600080fd5b506101de60048036038101906101d99190610d07565b610594565b005b6101e86107e4565b005b3480156101f657600080fd5b50610211600480360381019061020c9190610d07565b61085e565b60405161021e9190610e47565b60405180910390f35b34801561023357600080fd5b5061023c61089d565b6040516102499190610e47565b60405180910390f35b34801561025e57600080fd5b5061027960048036038101906102749190610e8e565b6108c3565b6040516102869190610bce565b60405180910390f35b6000808154809291906102a190610eea565b91905055506040518060a00160405280600054815260200183815260200182815260200160001515815260200142815250600460008054815260200190815260200160002060008201518160000155602082015181600101908051906020019061030c9291906108e4565b5060408201518160020190805190602001906103299291906108e4565b5060608201518160030160006101000a81548160ff021916908315150217905550608082015181600401559050507f6549102bed7d1bb5ec529ee14e2ca60ffc1f47f66d4cc6ca713220613cc64c256000548383600042604051610391959493929190610dd7565b60405180910390a15050565b600030905090565b600047905090565b60005481565b6060600280548060200260200160405190810160405280929190818152602001828054801561043757602002820191906000526020600020905b8160009054906101000a900473ffffffffffffffffffffffffffffffffffffffff1673ffffffffffffffffffffffffffffffffffffffff16815260200190600101908083116103ed575b5050505050905090565b600460205280600052604060002060009150905080600001549080600101805461046a90610f62565b80601f016020809104026020016040519081016040528092919081815260200182805461049690610f62565b80156104e35780601f106104b8576101008083540402835291602001916104e3565b820191906000526020600020905b8154815290600101906020018083116104c657829003601f168201915b5050505050908060020180546104f890610f62565b80601f016020809104026020016040519081016040528092919081815260200182805461052490610f62565b80156105715780601f1061054657610100808354040283529160200191610571565b820191906000526020600020905b81548152906001019060200180831161055457829003601f168201915b5050505050908060030160009054906101000a900460ff16908060040154905085565b6000600460008381526020019081526020016000206040518060a0016040529081600082015481526020016001820180546105ce90610f62565b80601f01602080910402602001604051908101604052809291908181526020018280546105fa90610f62565b80156106475780601f1061061c57610100808354040283529160200191610647565b820191906000526020600020905b81548152906001019060200180831161062a57829003601f168201915b5050505050815260200160028201805461066090610f62565b80601f016020809104026020016040519081016040528092919081815260200182805461068c90610f62565b80156106d95780601f106106ae576101008083540402835291602001916106d9565b820191906000526020600020905b8154815290600101906020018083116106bc57829003601f168201915b505050505081526020016003820160009054906101000a900460ff16151515158152602001600482015481525050905080606001511581606001901515908115158152505080600460008481526020019081526020016000206000820151816000015560208201518160010190805190602001906107589291906108e4565b5060408201518160020190805190602001906107759291906108e4565b5060608201518160030160006101000a81548160ff021916908315150217905550608082015181600401559050507f3a359256e016dcfa8426ec503e08484999d6fcfb8c0f6084dc9e63374d8384298282606001516040516107d8929190610f94565b60405180910390a15050565b678ac7230489e800003410156107f957600080fd5b6002339080600181540180825580915050600190039060005260206000200160009091909190916101000a81548173ffffffffffffffffffffffffffffffffffffffff021916908373ffffffffffffffffffffffffffffffffffffffff160217905550565b6002818154811061086e57600080fd5b906000526020600020016000915054906101000a900473ffffffffffffffffffffffffffffffffffffffff1681565b600160009054906101000a900473ffffffffffffffffffffffffffffffffffffffff1681565b60008173ffffffffffffffffffffffffffffffffffffffff16319050919050565b8280546108f090610f62565b90600052602060002090601f0160209004810192826109125760008555610959565b82601f1061092b57805160ff1916838001178555610959565b82800160010185558215610959579182015b8281111561095857825182559160200191906001019061093d565b5b509050610966919061096a565b5090565b5b8082111561098357600081600090555060010161096b565b5090565b6000604051905090565b600080fd5b600080fd5b600080fd5b600080fd5b6000601f19601f8301169050919050565b7f4e487b7100000000000000000000000000000000000000000000000000000000600052604160045260246000fd5b6109ee826109a5565b810181811067ffffffffffffffff82111715610a0d57610a0c6109b6565b5b80604052505050565b6000610a20610987565b9050610a2c82826109e5565b919050565b600067ffffffffffffffff821115610a4c57610a4b6109b6565b5b610a55826109a5565b9050602081019050919050565b82818337600083830152505050565b6000610a84610a7f84610a31565b610a16565b905082815260208101848484011115610aa057610a9f6109a0565b5b610aab848285610a62565b509392505050565b600082601f830112610ac857610ac761099b565b5b8135610ad8848260208601610a71565b91505092915050565b60008060408385031215610af857610af7610991565b5b600083013567ffffffffffffffff811115610b1657610b15610996565b5b610b2285828601610ab3565b925050602083013567ffffffffffffffff811115610b4357610b42610996565b5b610b4f85828601610ab3565b9150509250929050565b600073ffffffffffffffffffffffffffffffffffffffff82169050919050565b6000610b8482610b59565b9050919050565b610b9481610b79565b82525050565b6000602082019050610baf6000830184610b8b565b92915050565b6000819050919050565b610bc881610bb5565b82525050565b6000602082019050610be36000830184610bbf565b92915050565b600081519050919050565b600082825260208201905092915050565b6000819050602082019050919050565b6000610c2082610b59565b9050919050565b610c3081610c15565b82525050565b6000610c428383610c27565b60208301905092915050565b6000602082019050919050565b6000610c6682610be9565b610c708185610bf4565b9350610c7b83610c05565b8060005b83811015610cac578151610c938882610c36565b9750610c9e83610c4e565b925050600181019050610c7f565b5085935050505092915050565b60006020820190508181036000830152610cd38184610c5b565b905092915050565b610ce481610bb5565b8114610cef57600080fd5b50565b600081359050610d0181610cdb565b92915050565b600060208284031215610d1d57610d1c610991565b5b6000610d2b84828501610cf2565b91505092915050565b600081519050919050565b600082825260208201905092915050565b60005b83811015610d6e578082015181840152602081019050610d53565b83811115610d7d576000848401525b50505050565b6000610d8e82610d34565b610d988185610d3f565b9350610da8818560208601610d50565b610db1816109a5565b840191505092915050565b60008115159050919050565b610dd181610dbc565b82525050565b600060a082019050610dec6000830188610bbf565b8181036020830152610dfe8187610d83565b90508181036040830152610e128186610d83565b9050610e216060830185610dc8565b610e2e6080830184610bbf565b9695505050505050565b610e4181610c15565b82525050565b6000602082019050610e5c6000830184610e38565b92915050565b610e6b81610b79565b8114610e7657600080fd5b50565b600081359050610e8881610e62565b92915050565b600060208284031215610ea457610ea3610991565b5b6000610eb284828501610e79565b91505092915050565b7f4e487b7100000000000000000000000000000000000000000000000000000000600052601160045260246000fd5b6000610ef582610bb5565b91507fffffffffffffffffffffffffffffffffffffffffffffffffffffffffffffffff821415610f2857610f27610ebb565b5b600182019050919050565b7f4e487b7100000000000000000000000000000000000000000000000000000000600052602260045260246000fd5b60006002820490506001821680610f7a57607f821691505b60208210811415610f8e57610f8d610f33565b5b50919050565b6000604082019050610fa96000830185610bbf565b610fb66020830184610dc8565b939250505056fea2646970667358221220f98ff5558ac713ea63551cfce8709a603815354173062ebd04ac5ae918447a2d64736f6c634300080a0033",
  "immutableReferences": {},
  "source": "// SPDX-License-Identifier: MIT\npragma solidity ^0.8.6;\n\ncontract TasksContract {\n    uint256 public tasksCounter = 0;\n    address payable public admin;\n    address payable[] public players;\n    mapping (address => uint) balances;\n\n    struct Task {\n        uint256 id;\n        string title;\n        string description;\n        bool done;\n        uint256 createdAt;\n    }\n\n    event TaskCreated(\n        uint256 id,\n        string title,\n        string description,\n        bool done,\n        uint256 createdAt\n    );\n    event TaskToggledDone(uint256 id, bool done);\n\n    mapping(uint256 => Task) public tasks;\n\n    constructor() {\n        createTask(\"Task 1\", \"Description\");\n        admin=payable(msg.sender);\n    }\n\n    modifier restricted() {\n        require(msg.sender == admin);\n        _;\n    }\n\n    function createTask(string memory _title, string memory _description)\n        public\n    {\n        tasksCounter++;\n        tasks[tasksCounter] = Task(\n            tasksCounter,\n            _title,\n            _description,\n            false,\n            block.timestamp\n        );\n        emit TaskCreated(\n            tasksCounter,\n            _title,\n            _description,\n            false,\n            block.timestamp\n        );\n    }\n\n    function toggleDone(uint256 _id) public {\n        Task memory _task = tasks[_id];\n        _task.done = !_task.done;\n        tasks[_id] = _task;\n        emit TaskToggledDone(_id, _task.done);\n    }\n\n    // Function to get \n    // address of admin\n    function getContractAddress(\n    ) public view returns (address) {\n        return address(this);\n    }\n  \n    // Function to return \n    // current balance of admin\n    function getContractBalance(\n    ) public view returns(uint256){\n        return address(this).balance;\n    }\n\n    function enter() public payable {\n        require(msg.value >= 10 ether);\n        players.push(payable(msg.sender));\n    }\n    \n    function getPlayers() public view returns (address payable[] memory) {\n        return players;\n    }\n\n    function getBalance(address addr) public view returns(uint256){\n        return addr.balance;\n    }\n}\n",
  "sourcePath": "/app/ether/contracts/TasksContract.sol",
  "compiler": {
    "name": "solc",
    "version": "0.8.10+commit.fc410830.Emscripten.clang"
  },
  "schemaVersion": "3.4.7",
  "updatedAt": "2022-09-14T03:17:16.625Z",
  "devdoc": {
    "kind": "dev",
    "methods": {},
    "version": 1
  },
  "userdoc": {
    "kind": "user",
    "methods": {},
    "version": 1
  }
}